{
  "_format": "hh-sol-artifact-1",
  "contractName": "MarketSentiment",
  "sourceName": "contracts/MarketSentiment.sol",
  "abi": [
    {
      "inputs": [],
      "stateMutability": "nonpayable",
      "type": "constructor"
    },
    {
      "anonymous": false,
      "inputs": [
        {
          "indexed": false,
          "internalType": "uint256",
          "name": "up",
          "type": "uint256"
        },
        {
          "indexed": false,
          "internalType": "uint256",
          "name": "down",
          "type": "uint256"
        },
        {
          "indexed": false,
          "internalType": "address",
          "name": "voterm",
          "type": "address"
        },
        {
          "indexed": false,
          "internalType": "string",
          "name": "ticker",
          "type": "string"
        }
      ],
      "name": "tickerupdated",
      "type": "event"
    },
    {
      "inputs": [
        {
          "internalType": "string",
          "name": "_ticker",
          "type": "string"
        }
      ],
      "name": "addTicker",
      "outputs": [],
      "stateMutability": "nonpayable",
      "type": "function"
    },
    {
      "inputs": [
        {
          "internalType": "string",
          "name": "_ticker",
          "type": "string"
        }
      ],
      "name": "getVotes",
      "outputs": [
        {
          "internalType": "uint256",
          "name": "up",
          "type": "uint256"
        },
        {
          "internalType": "uint256",
          "name": "down",
          "type": "uint256"
        }
      ],
      "stateMutability": "view",
      "type": "function"
    },
    {
      "inputs": [],
      "name": "owner",
      "outputs": [
        {
          "internalType": "address",
          "name": "",
          "type": "address"
        }
      ],
      "stateMutability": "view",
      "type": "function"
    },
    {
      "inputs": [
        {
          "internalType": "uint256",
          "name": "",
          "type": "uint256"
        }
      ],
      "name": "tickersArray",
      "outputs": [
        {
          "internalType": "string",
          "name": "",
          "type": "string"
        }
      ],
      "stateMutability": "view",
      "type": "function"
    },
    {
      "inputs": [
        {
          "internalType": "string",
          "name": "_ticker",
          "type": "string"
        },
        {
          "internalType": "bool",
          "name": "_vote",
          "type": "bool"
        }
      ],
      "name": "vote",
      "outputs": [],
      "stateMutability": "nonpayable",
      "type": "function"
    }
  ],
  "bytecode": "0x608060405234801561001057600080fd5b50336000806101000a81548173ffffffffffffffffffffffffffffffffffffffff021916908373ffffffffffffffffffffffffffffffffffffffff160217905550610cab806100606000396000f3fe608060405234801561001057600080fd5b50600436106100575760003560e01c806327d3410c1461005c5780635f6449ad1461007857806376152ab214610094578063805265e5146100c45780638da5cb5b146100f5575b600080fd5b6100766004803603810190610071919061069e565b610113565b005b610092600480360381019061008d9190610655565b610333565b005b6100ae60048036038101906100a991906106fa565b610440565b6040516100bb919061084a565b60405180910390f35b6100de60048036038101906100d99190610655565b6104ec565b6040516100ec9291906108cc565b60405180910390f35b6100fd6104f4565b60405161010a919061082f565b60405180910390f35b6002826040516101239190610818565b908152602001604051809103902060000160009054906101000a900460ff16610181576040517f08c379a00000000000000000000000000000000000000000000000000000000081526004016101789061088c565b60405180910390fd5b6002826040516101919190610818565b908152602001604051809103902060030160003373ffffffffffffffffffffffffffffffffffffffff1673ffffffffffffffffffffffffffffffffffffffff16815260200190815260200160002060009054906101000a900460ff161561022d576040517f08c379a00000000000000000000000000000000000000000000000000000000081526004016102249061086c565b60405180910390fd5b600060028360405161023f9190610818565b9081526020016040518091039020905060018160030160003373ffffffffffffffffffffffffffffffffffffffff1673ffffffffffffffffffffffffffffffffffffffff16815260200190815260200160002060006101000a81548160ff02191690831515021790555081156102ce578060010160008154809291906102c490610aab565b91905055506102e9565b8060020160008154809291906102e390610aab565b91905055505b7f3f02e6da2d3423fb90c77b85e149620faac44650a2293529132014c94c8a68d881600101548260020154338660405161032694939291906108f5565b60405180910390a1505050565b60008054906101000a900473ffffffffffffffffffffffffffffffffffffffff1673ffffffffffffffffffffffffffffffffffffffff163373ffffffffffffffffffffffffffffffffffffffff16146103c1576040517f08c379a00000000000000000000000000000000000000000000000000000000081526004016103b8906108ac565b60405180910390fd5b60006002826040516103d39190610818565b9081526020016040518091039020905060018160000160006101000a81548160ff02191690831515021790555060018290806001815401808255809150506001900390600052602060002001600090919091909150908051906020019061043b929190610518565b505050565b6001818154811061045057600080fd5b90600052602060002001600091509050805461046b90610a48565b80601f016020809104026020016040519081016040528092919081815260200182805461049790610a48565b80156104e45780601f106104b9576101008083540402835291602001916104e4565b820191906000526020600020905b8154815290600101906020018083116104c757829003601f168201915b505050505081565b600080915091565b60008054906101000a900473ffffffffffffffffffffffffffffffffffffffff1681565b82805461052490610a48565b90600052602060002090601f016020900481019282610546576000855561058d565b82601f1061055f57805160ff191683800117855561058d565b8280016001018555821561058d579182015b8281111561058c578251825591602001919060010190610571565b5b50905061059a919061059e565b5090565b5b808211156105b757600081600090555060010161059f565b5090565b60006105ce6105c984610966565b610941565b9050828152602081018484840111156105ea576105e9610b86565b5b6105f5848285610a06565b509392505050565b60008135905061060c81610c47565b92915050565b600082601f83011261062757610626610b81565b5b81356106378482602086016105bb565b91505092915050565b60008135905061064f81610c5e565b92915050565b60006020828403121561066b5761066a610b90565b5b600082013567ffffffffffffffff81111561068957610688610b8b565b5b61069584828501610612565b91505092915050565b600080604083850312156106b5576106b4610b90565b5b600083013567ffffffffffffffff8111156106d3576106d2610b8b565b5b6106df85828601610612565b92505060206106f0858286016105fd565b9150509250929050565b6000602082840312156107105761070f610b90565b5b600061071e84828501610640565b91505092915050565b610730816109be565b82525050565b600061074182610997565b61074b81856109a2565b935061075b818560208601610a15565b61076481610b95565b840191505092915050565b600061077a82610997565b61078481856109b3565b9350610794818560208601610a15565b80840191505092915050565b60006107ad6022836109a2565b91506107b882610ba6565b604082019050919050565b60006107d06013836109a2565b91506107db82610bf5565b602082019050919050565b60006107f36019836109a2565b91506107fe82610c1e565b602082019050919050565b610812816109fc565b82525050565b6000610824828461076f565b915081905092915050565b60006020820190506108446000830184610727565b92915050565b600060208201905081810360008301526108648184610736565b905092915050565b60006020820190508181036000830152610885816107a0565b9050919050565b600060208201905081810360008301526108a5816107c3565b9050919050565b600060208201905081810360008301526108c5816107e6565b9050919050565b60006040820190506108e16000830185610809565b6108ee6020830184610809565b9392505050565b600060808201905061090a6000830187610809565b6109176020830186610809565b6109246040830185610727565b81810360608301526109368184610736565b905095945050505050565b600061094b61095c565b90506109578282610a7a565b919050565b6000604051905090565b600067ffffffffffffffff82111561098157610980610b52565b5b61098a82610b95565b9050602081019050919050565b600081519050919050565b600082825260208201905092915050565b600081905092915050565b60006109c9826109dc565b9050919050565b60008115159050919050565b600073ffffffffffffffffffffffffffffffffffffffff82169050919050565b6000819050919050565b82818337600083830152505050565b60005b83811015610a33578082015181840152602081019050610a18565b83811115610a42576000848401525b50505050565b60006002820490506001821680610a6057607f821691505b60208210811415610a7457610a73610b23565b5b50919050565b610a8382610b95565b810181811067ffffffffffffffff82111715610aa257610aa1610b52565b5b80604052505050565b6000610ab6826109fc565b91507fffffffffffffffffffffffffffffffffffffffffffffffffffffffffffffffff821415610ae957610ae8610af4565b5b600182019050919050565b7f4e487b7100000000000000000000000000000000000000000000000000000000600052601160045260246000fd5b7f4e487b7100000000000000000000000000000000000000000000000000000000600052602260045260246000fd5b7f4e487b7100000000000000000000000000000000000000000000000000000000600052604160045260246000fd5b600080fd5b600080fd5b600080fd5b600080fd5b6000601f19601f8301169050919050565b7f596f75206861766520616c726561647920766f74656420666f7220746869732160008201527f2121000000000000000000000000000000000000000000000000000000000000602082015250565b7f5469636b6572206e6f7420657869737421212100000000000000000000000000600082015250565b7f4f6e6c79206f776e65722063616e20646f207468697321212100000000000000600082015250565b610c50816109d0565b8114610c5b57600080fd5b50565b610c67816109fc565b8114610c7257600080fd5b5056fea26469706673582212209870e0d531aed6a3fb58b8dd06308d6b1cbe21b63cdb5a33a335af8e6668a1ff64736f6c63430008070033",
  "linkReferences": {},
  "deployedLinkReferences": {}
}